{
  "_format": "hh-sol-artifact-1",
  "contractName": "Potato",
  "sourceName": "contracts/Potato.sol",
  "abi": [
    {
      "inputs": [],
      "stateMutability": "nonpayable",
      "type": "constructor"
    },
    {
      "anonymous": false,
      "inputs": [
        {
          "indexed": true,
          "internalType": "address",
          "name": "owner",
          "type": "address"
        },
        {
          "indexed": true,
          "internalType": "address",
          "name": "approved",
          "type": "address"
        },
        {
          "indexed": true,
          "internalType": "uint256",
          "name": "tokenId",
          "type": "uint256"
        }
      ],
      "name": "Approval",
      "type": "event"
    },
    {
      "anonymous": false,
      "inputs": [
        {
          "indexed": true,
          "internalType": "address",
          "name": "owner",
          "type": "address"
        },
        {
          "indexed": true,
          "internalType": "address",
          "name": "operator",
          "type": "address"
        },
        {
          "indexed": false,
          "internalType": "bool",
          "name": "approved",
          "type": "bool"
        }
      ],
      "name": "ApprovalForAll",
      "type": "event"
    },
    {
      "anonymous": false,
      "inputs": [
        {
          "indexed": true,
          "internalType": "address",
          "name": "previousOwner",
          "type": "address"
        },
        {
          "indexed": true,
          "internalType": "address",
          "name": "newOwner",
          "type": "address"
        }
      ],
      "name": "OwnershipTransferred",
      "type": "event"
    },
    {
      "anonymous": false,
      "inputs": [
        {
          "indexed": true,
          "internalType": "address",
          "name": "from",
          "type": "address"
        },
        {
          "indexed": true,
          "internalType": "address",
          "name": "to",
          "type": "address"
        },
        {
          "indexed": true,
          "internalType": "uint256",
          "name": "tokenId",
          "type": "uint256"
        }
      ],
      "name": "Transfer",
      "type": "event"
    },
    {
      "anonymous": false,
      "inputs": [
        {
          "indexed": false,
          "internalType": "uint256",
          "name": "potatoId",
          "type": "uint256"
        }
      ],
      "name": "gameStarted",
      "type": "event"
    },
    {
      "anonymous": false,
      "inputs": [
        {
          "indexed": false,
          "internalType": "address",
          "name": "player",
          "type": "address"
        },
        {
          "indexed": false,
          "internalType": "uint256",
          "name": "potatoId",
          "type": "uint256"
        },
        {
          "indexed": false,
          "internalType": "uint8",
          "name": "potatoCount",
          "type": "uint8"
        },
        {
          "indexed": false,
          "internalType": "address[]",
          "name": "players",
          "type": "address[]"
        }
      ],
      "name": "joinedGame",
      "type": "event"
    },
    {
      "anonymous": false,
      "inputs": [
        {
          "indexed": false,
          "internalType": "address",
          "name": "player",
          "type": "address"
        },
        {
          "indexed": false,
          "internalType": "uint256",
          "name": "potatoId",
          "type": "uint256"
        },
        {
          "indexed": false,
          "internalType": "uint8",
          "name": "potatoCount",
          "type": "uint8"
        }
      ],
      "name": "openedGame",
      "type": "event"
    },
    {
      "anonymous": false,
      "inputs": [
        {
          "indexed": false,
          "internalType": "uint256",
          "name": "potatoId",
          "type": "uint256"
        }
      ],
      "name": "potatoExploded",
      "type": "event"
    },
    {
      "anonymous": false,
      "inputs": [
        {
          "indexed": false,
          "internalType": "address",
          "name": "from",
          "type": "address"
        },
        {
          "indexed": false,
          "internalType": "address",
          "name": "to",
          "type": "address"
        },
        {
          "indexed": false,
          "internalType": "uint256",
          "name": "potatoId",
          "type": "uint256"
        }
      ],
      "name": "potatoSent",
      "type": "event"
    },
    {
      "inputs": [],
      "name": "MAX_EXPLODE_TIME",
      "outputs": [
        {
          "internalType": "uint256",
          "name": "",
          "type": "uint256"
        }
      ],
      "stateMutability": "view",
      "type": "function"
    },
    {
      "inputs": [],
      "name": "MAX_POTATOES",
      "outputs": [
        {
          "internalType": "uint8",
          "name": "",
          "type": "uint8"
        }
      ],
      "stateMutability": "view",
      "type": "function"
    },
    {
      "inputs": [
        {
          "internalType": "address",
          "name": "to",
          "type": "address"
        },
        {
          "internalType": "uint256",
          "name": "tokenId",
          "type": "uint256"
        }
      ],
      "name": "approve",
      "outputs": [],
      "stateMutability": "nonpayable",
      "type": "function"
    },
    {
      "inputs": [
        {
          "internalType": "address",
          "name": "owner",
          "type": "address"
        }
      ],
      "name": "balanceOf",
      "outputs": [
        {
          "internalType": "uint256",
          "name": "",
          "type": "uint256"
        }
      ],
      "stateMutability": "view",
      "type": "function"
    },
    {
      "inputs": [
        {
          "internalType": "uint256",
          "name": "tokenId",
          "type": "uint256"
        }
      ],
      "name": "getApproved",
      "outputs": [
        {
          "internalType": "address",
          "name": "",
          "type": "address"
        }
      ],
      "stateMutability": "view",
      "type": "function"
    },
    {
      "inputs": [
        {
          "internalType": "uint256",
          "name": "potatoId",
          "type": "uint256"
        }
      ],
      "name": "getExplodeTime",
      "outputs": [
        {
          "internalType": "uint256",
          "name": "explodeTime",
          "type": "uint256"
        }
      ],
      "stateMutability": "view",
      "type": "function"
    },
    {
      "inputs": [
        {
          "internalType": "uint256",
          "name": "potatoId",
          "type": "uint256"
        }
      ],
      "name": "getPlayersForPotato",
      "outputs": [
        {
          "internalType": "address[]",
          "name": "players",
          "type": "address[]"
        }
      ],
      "stateMutability": "view",
      "type": "function"
    },
    {
      "inputs": [
        {
          "internalType": "address",
          "name": "player",
          "type": "address"
        }
      ],
      "name": "getTDMBalance",
      "outputs": [
        {
          "internalType": "uint256",
          "name": "balance",
          "type": "uint256"
        }
      ],
      "stateMutability": "view",
      "type": "function"
    },
    {
      "inputs": [
        {
          "internalType": "uint256",
          "name": "potatoId",
          "type": "uint256"
        }
      ],
      "name": "isAlive",
      "outputs": [
        {
          "internalType": "bool",
          "name": "res",
          "type": "bool"
        }
      ],
      "stateMutability": "view",
      "type": "function"
    },
    {
      "inputs": [
        {
          "internalType": "address",
          "name": "owner",
          "type": "address"
        },
        {
          "internalType": "address",
          "name": "operator",
          "type": "address"
        }
      ],
      "name": "isApprovedForAll",
      "outputs": [
        {
          "internalType": "bool",
          "name": "",
          "type": "bool"
        }
      ],
      "stateMutability": "view",
      "type": "function"
    },
    {
      "inputs": [
        {
          "internalType": "uint256",
          "name": "potatoId",
          "type": "uint256"
        }
      ],
      "name": "joinGame",
      "outputs": [],
      "stateMutability": "nonpayable",
      "type": "function"
    },
    {
      "inputs": [],
      "name": "name",
      "outputs": [
        {
          "internalType": "string",
          "name": "",
          "type": "string"
        }
      ],
      "stateMutability": "view",
      "type": "function"
    },
    {
      "inputs": [],
      "name": "openGame",
      "outputs": [
        {
          "internalType": "uint256",
          "name": "newId",
          "type": "uint256"
        }
      ],
      "stateMutability": "nonpayable",
      "type": "function"
    },
    {
      "inputs": [],
      "name": "owner",
      "outputs": [
        {
          "internalType": "address",
          "name": "",
          "type": "address"
        }
      ],
      "stateMutability": "view",
      "type": "function"
    },
    {
      "inputs": [
        {
          "internalType": "uint256",
          "name": "tokenId",
          "type": "uint256"
        }
      ],
      "name": "ownerOf",
      "outputs": [
        {
          "internalType": "address",
          "name": "",
          "type": "address"
        }
      ],
      "stateMutability": "view",
      "type": "function"
    },
    {
      "inputs": [],
      "name": "potatoCount",
      "outputs": [
        {
          "internalType": "uint8",
          "name": "",
          "type": "uint8"
        }
      ],
      "stateMutability": "view",
      "type": "function"
    },
    {
      "inputs": [],
      "name": "renounceOwnership",
      "outputs": [],
      "stateMutability": "nonpayable",
      "type": "function"
    },
    {
      "inputs": [
        {
          "internalType": "address",
          "name": "from",
          "type": "address"
        },
        {
          "internalType": "address",
          "name": "to",
          "type": "address"
        },
        {
          "internalType": "uint256",
          "name": "tokenId",
          "type": "uint256"
        }
      ],
      "name": "safeTransferFrom",
      "outputs": [],
      "stateMutability": "nonpayable",
      "type": "function"
    },
    {
      "inputs": [
        {
          "internalType": "address",
          "name": "from",
          "type": "address"
        },
        {
          "internalType": "address",
          "name": "to",
          "type": "address"
        },
        {
          "internalType": "uint256",
          "name": "tokenId",
          "type": "uint256"
        },
        {
          "internalType": "bytes",
          "name": "data",
          "type": "bytes"
        }
      ],
      "name": "safeTransferFrom",
      "outputs": [],
      "stateMutability": "nonpayable",
      "type": "function"
    },
    {
      "inputs": [
        {
          "internalType": "address",
          "name": "operator",
          "type": "address"
        },
        {
          "internalType": "bool",
          "name": "approved",
          "type": "bool"
        }
      ],
      "name": "setApprovalForAll",
      "outputs": [],
      "stateMutability": "nonpayable",
      "type": "function"
    },
    {
      "inputs": [
        {
          "internalType": "bytes4",
          "name": "interfaceId",
          "type": "bytes4"
        }
      ],
      "name": "supportsInterface",
      "outputs": [
        {
          "internalType": "bool",
          "name": "",
          "type": "bool"
        }
      ],
      "stateMutability": "view",
      "type": "function"
    },
    {
      "inputs": [],
      "name": "symbol",
      "outputs": [
        {
          "internalType": "string",
          "name": "",
          "type": "string"
        }
      ],
      "stateMutability": "view",
      "type": "function"
    },
    {
      "inputs": [
        {
          "internalType": "uint256",
          "name": "index",
          "type": "uint256"
        }
      ],
      "name": "tokenByIndex",
      "outputs": [
        {
          "internalType": "uint256",
          "name": "",
          "type": "uint256"
        }
      ],
      "stateMutability": "view",
      "type": "function"
    },
    {
      "inputs": [
        {
          "internalType": "address",
          "name": "owner",
          "type": "address"
        },
        {
          "internalType": "uint256",
          "name": "index",
          "type": "uint256"
        }
      ],
      "name": "tokenOfOwnerByIndex",
      "outputs": [
        {
          "internalType": "uint256",
          "name": "",
          "type": "uint256"
        }
      ],
      "stateMutability": "view",
      "type": "function"
    },
    {
      "inputs": [
        {
          "internalType": "uint256",
          "name": "tokenId",
          "type": "uint256"
        }
      ],
      "name": "tokenURI",
      "outputs": [
        {
          "internalType": "string",
          "name": "",
          "type": "string"
        }
      ],
      "stateMutability": "view",
      "type": "function"
    },
    {
      "inputs": [],
      "name": "totalSupply",
      "outputs": [
        {
          "internalType": "uint256",
          "name": "",
          "type": "uint256"
        }
      ],
      "stateMutability": "view",
      "type": "function"
    },
    {
      "inputs": [
        {
          "internalType": "address",
          "name": "from",
          "type": "address"
        },
        {
          "internalType": "address",
          "name": "to",
          "type": "address"
        },
        {
          "internalType": "uint256",
          "name": "tokenId",
          "type": "uint256"
        }
      ],
      "name": "transferFrom",
      "outputs": [],
      "stateMutability": "nonpayable",
      "type": "function"
    },
    {
      "inputs": [
        {
          "internalType": "address",
          "name": "newOwner",
          "type": "address"
        }
      ],
      "name": "transferOwnership",
      "outputs": [],
      "stateMutability": "nonpayable",
      "type": "function"
    },
    {
      "inputs": [
        {
          "internalType": "address",
          "name": "",
          "type": "address"
        }
      ],
      "name": "wins",
      "outputs": [
        {
          "internalType": "uint256",
          "name": "",
          "type": "uint256"
        }
      ],
      "stateMutability": "view",
      "type": "function"
    }
  ],
  "bytecode": "0x60806040523480156200001157600080fd5b506040518060400160405280600681526020017f506f7461746f00000000000000000000000000000000000000000000000000008152506040518060400160405280600181526020017f500000000000000000000000000000000000000000000000000000000000000081525081600090816200008f9190620004dd565b508060019081620000a19190620004dd565b505050620000c4620000b86200018760201b60201c565b6200018f60201b60201c565b33600c60006101000a81548173ffffffffffffffffffffffffffffffffffffffff021916908373ffffffffffffffffffffffffffffffffffffffff160217905550620186a0604051620001179062000255565b62000123919062000607565b604051809103906000f08015801562000140573d6000803e3d6000fd5b50600d60006101000a81548173ffffffffffffffffffffffffffffffffffffffff021916908373ffffffffffffffffffffffffffffffffffffffff16021790555062000624565b600033905090565b6000600a60009054906101000a900473ffffffffffffffffffffffffffffffffffffffff16905081600a60006101000a81548173ffffffffffffffffffffffffffffffffffffffff021916908373ffffffffffffffffffffffffffffffffffffffff1602179055508173ffffffffffffffffffffffffffffffffffffffff168173ffffffffffffffffffffffffffffffffffffffff167f8be0079c531659141344cd1fd0a4f28419497f9722a3daafe3b4186f6b6457e060405160405180910390a35050565b6119df80620052fd83390190565b600081519050919050565b7f4e487b7100000000000000000000000000000000000000000000000000000000600052604160045260246000fd5b7f4e487b7100000000000000000000000000000000000000000000000000000000600052602260045260246000fd5b60006002820490506001821680620002e557607f821691505b602082108103620002fb57620002fa6200029d565b5b50919050565b60008190508160005260206000209050919050565b60006020601f8301049050919050565b600082821b905092915050565b600060088302620003657fffffffffffffffffffffffffffffffffffffffffffffffffffffffffffffffff8262000326565b62000371868362000326565b95508019841693508086168417925050509392505050565b6000819050919050565b6000819050919050565b6000620003be620003b8620003b28462000389565b62000393565b62000389565b9050919050565b6000819050919050565b620003da836200039d565b620003f2620003e982620003c5565b84845462000333565b825550505050565b600090565b62000409620003fa565b62000416818484620003cf565b505050565b5b818110156200043e5762000432600082620003ff565b6001810190506200041c565b5050565b601f8211156200048d57620004578162000301565b620004628462000316565b8101602085101562000472578190505b6200048a620004818562000316565b8301826200041b565b50505b505050565b600082821c905092915050565b6000620004b26000198460080262000492565b1980831691505092915050565b6000620004cd83836200049f565b9150826002028217905092915050565b620004e88262000263565b67ffffffffffffffff8111156200050457620005036200026e565b5b620005108254620002cc565b6200051d82828562000442565b600060209050601f83116001811462000555576000841562000540578287015190505b6200054c8582620004bf565b865550620005bc565b601f198416620005658662000301565b60005b828110156200058f5784890151825560018201915060208501945060208101905062000568565b86831015620005af5784890151620005ab601f8916826200049f565b8355505b6001600288020188555050505b505050505050565b6000819050919050565b6000620005ef620005e9620005e384620005c4565b62000393565b62000389565b9050919050565b6200060181620005ce565b82525050565b60006020820190506200061e6000830184620005f6565b92915050565b614cc980620006346000396000f3fe608060405234801561001057600080fd5b50600436106101cf5760003560e01c806370a0823111610104578063b88d4fde116100a2578063e985e9c511610071578063e985e9c51461057c578063efaa55a0146105ac578063f2fde38b146105c8578063fa12d782146105e4576101cf565b8063b88d4fde146104e2578063c87b56dd146104fe578063d84b23611461052e578063dad031ec1461055e576101cf565b80638da5cb5b116100de5780638da5cb5b1461045a57806395d89b41146104785780639a62e19b14610496578063a22cb465146104c6576101cf565b806370a08231146103f0578063715018a6146104205780638047a97a1461042a576101cf565b806323b872dd1161017157806342842e0e1161014b57806342842e0e146103445780634f6ccce7146103605780636352211e146103905780636f7aa513146103c0576101cf565b806323b872dd146102da5780632f745c59146102f6578063361c5f4114610326576101cf565b8063081812fc116101ad578063081812fc14610252578063095ea7b31461028257806317bd6de71461029e57806318160ddd146102bc576101cf565b806301ffc9a7146101d45780630472bc781461020457806306fdde0314610234575b600080fd5b6101ee60048036038101906101e9919061336d565b610602565b6040516101fb91906133b5565b60405180910390f35b61021e60048036038101906102199190613406565b61067c565b60405161022b9190613442565b60405180910390f35b61023c6106a1565b60405161024991906134ed565b60405180910390f35b61026c60048036038101906102679190613406565b610733565b6040516102799190613550565b60405180910390f35b61029c60048036038101906102979190613597565b610779565b005b6102a6610890565b6040516102b39190613442565b60405180910390f35b6102c4610896565b6040516102d19190613442565b60405180910390f35b6102f460048036038101906102ef91906135d7565b6108a3565b005b610310600480360381019061030b9190613597565b610903565b60405161031d9190613442565b60405180910390f35b61032e6109a8565b60405161033b9190613646565b60405180910390f35b61035e600480360381019061035991906135d7565b6109bb565b005b61037a60048036038101906103759190613406565b6109db565b6040516103879190613442565b60405180910390f35b6103aa60048036038101906103a59190613406565b610a4c565b6040516103b79190613550565b60405180910390f35b6103da60048036038101906103d59190613661565b610ad2565b6040516103e79190613442565b60405180910390f35b61040a60048036038101906104059190613661565b610b77565b6040516104179190613442565b60405180910390f35b610428610c2e565b005b610444600480360381019061043f9190613661565b610c42565b6040516104519190613442565b60405180910390f35b610462610c5a565b60405161046f9190613550565b60405180910390f35b610480610c84565b60405161048d91906134ed565b60405180910390f35b6104b060048036038101906104ab9190613406565b610d16565b6040516104bd919061374c565b60405180910390f35b6104e060048036038101906104db919061379a565b610db7565b005b6104fc60048036038101906104f7919061390f565b610dcd565b005b61051860048036038101906105139190613406565b610e2f565b60405161052591906134ed565b60405180910390f35b61054860048036038101906105439190613406565b610e97565b60405161055591906133b5565b60405180910390f35b610566610ed4565b6040516105739190613646565b60405180910390f35b61059660048036038101906105919190613992565b610ed9565b6040516105a391906133b5565b60405180910390f35b6105c660048036038101906105c19190613406565b610f6d565b005b6105e260048036038101906105dd9190613661565b6110f7565b005b6105ec61117a565b6040516105f99190613442565b60405180910390f35b60007f780e9d63000000000000000000000000000000000000000000000000000000007bffffffffffffffffffffffffffffffffffffffffffffffffffffffff1916827bffffffffffffffffffffffffffffffffffffffffffffffffffffffff19161480610675575061067482611363565b5b9050919050565b6000610686611445565b61069a8260106114c390919063ffffffff16565b9050919050565b6060600080546106b090613a01565b80601f01602080910402602001604051908101604052809291908181526020018280546106dc90613a01565b80156107295780601f106106fe57610100808354040283529160200191610729565b820191906000526020600020905b81548152906001019060200180831161070c57829003601f168201915b5050505050905090565b600061073e826114e0565b6004600083815260200190815260200160002060009054906101000a900473ffffffffffffffffffffffffffffffffffffffff169050919050565b600061078482610a4c565b90508073ffffffffffffffffffffffffffffffffffffffff168373ffffffffffffffffffffffffffffffffffffffff16036107f4576040517f08c379a00000000000000000000000000000000000000000000000000000000081526004016107eb90613aa4565b60405180910390fd5b8073ffffffffffffffffffffffffffffffffffffffff1661081361152b565b73ffffffffffffffffffffffffffffffffffffffff16148061084257506108418161083c61152b565b610ed9565b5b610881576040517f08c379a000000000000000000000000000000000000000000000000000000000815260040161087890613b36565b60405180910390fd5b61088b8383611533565b505050565b61546081565b6000600880549050905090565b6108b46108ae61152b565b826115ec565b6108f3576040517f08c379a00000000000000000000000000000000000000000000000000000000081526004016108ea90613bc8565b60405180910390fd5b6108fe838383611681565b505050565b600061090e83610b77565b821061094f576040517f08c379a000000000000000000000000000000000000000000000000000000000815260040161094690613c5a565b60405180910390fd5b600660008473ffffffffffffffffffffffffffffffffffffffff1673ffffffffffffffffffffffffffffffffffffffff168152602001908152602001600020600083815260200190815260200160002054905092915050565b600a60149054906101000a900460ff1681565b6109d683838360405180602001604052806000815250610dcd565b505050565b60006109e5610896565b8210610a26576040517f08c379a0000000000000000000000000000000000000000000000000000000008152600401610a1d90613cec565b60405180910390fd5b60088281548110610a3a57610a39613d0c565b5b90600052602060002001549050919050565b600080610a588361197a565b9050600073ffffffffffffffffffffffffffffffffffffffff168173ffffffffffffffffffffffffffffffffffffffff1603610ac9576040517f08c379a0000000000000000000000000000000000000000000000000000000008152600401610ac090613d87565b60405180910390fd5b80915050919050565b6000600d60009054906101000a900473ffffffffffffffffffffffffffffffffffffffff1673ffffffffffffffffffffffffffffffffffffffff166370a08231836040518263ffffffff1660e01b8152600401610b2f9190613550565b602060405180830381865afa158015610b4c573d6000803e3d6000fd5b505050506040513d601f19601f82011682018060405250810190610b709190613dbc565b9050919050565b60008073ffffffffffffffffffffffffffffffffffffffff168273ffffffffffffffffffffffffffffffffffffffff1603610be7576040517f08c379a0000000000000000000000000000000000000000000000000000000008152600401610bde90613e5b565b60405180910390fd5b600360008373ffffffffffffffffffffffffffffffffffffffff1673ffffffffffffffffffffffffffffffffffffffff168152602001908152602001600020549050919050565b610c36611445565b610c4060006119b7565b565b600b6020528060005260406000206000915090505481565b6000600a60009054906101000a900473ffffffffffffffffffffffffffffffffffffffff16905090565b606060018054610c9390613a01565b80601f0160208091040260200160405190810160405280929190818152602001828054610cbf90613a01565b8015610d0c5780601f10610ce157610100808354040283529160200191610d0c565b820191906000526020600020905b815481529060010190602001808311610cef57829003601f168201915b5050505050905090565b606060136000838152602001908152602001600020805480602002602001604051908101604052809291908181526020018280548015610dab57602002820191906000526020600020905b8160009054906101000a900473ffffffffffffffffffffffffffffffffffffffff1673ffffffffffffffffffffffffffffffffffffffff1681526020019060010190808311610d61575b50505050509050919050565b610dc9610dc261152b565b8383611a7d565b5050565b610dde610dd861152b565b836115ec565b610e1d576040517f08c379a0000000000000000000000000000000000000000000000000000000008152600401610e1490613bc8565b60405180910390fd5b610e2984848484611be9565b50505050565b6060610e3a826114e0565b6000610e44611c45565b90506000815111610e645760405180602001604052806000815250610e8f565b80610e6e84611c5c565b604051602001610e7f929190613eb7565b6040516020818303038152906040525b915050919050565b600080610eae8360106114c390919063ffffffff16565b1480610ecc5750610ec98260106114c390919063ffffffff16565b42115b159050919050565b600381565b6000600560008473ffffffffffffffffffffffffffffffffffffffff1673ffffffffffffffffffffffffffffffffffffffff16815260200190815260200160002060008373ffffffffffffffffffffffffffffffffffffffff1673ffffffffffffffffffffffffffffffffffffffff16815260200190815260200160002060009054906101000a900460ff16905092915050565b600360ff16601360008381526020019081526020016000208054905010610fc9576040517f08c379a0000000000000000000000000000000000000000000000000000000008152600401610fc090613f4d565b60405180910390fd5b600360ff16601360008381526020019081526020016000208054905003611022577f0904cb5793a55505e1395a96a8c94a6470d36abd9b07d4c57479fec5679d0866816040516110199190613442565b60405180910390a15b60136000828152602001908152602001600020339080600181540180825580915050600190039060005260206000200160009091909190916101000a81548173ffffffffffffffffffffffffffffffffffffffff021916908373ffffffffffffffffffffffffffffffffffffffff1602179055507f6f4823ac3290705912c67c3fbf319fd69c1efbdac1020cbc28dbdef1fe1e8bd83382600a60149054906101000a900460ff16601360008681526020019081526020016000206040516110ec9493929190614059565b60405180910390a150565b6110ff611445565b600073ffffffffffffffffffffffffffffffffffffffff168173ffffffffffffffffffffffffffffffffffffffff160361116e576040517f08c379a000000000000000000000000000000000000000000000000000000000815260040161116590614117565b60405180910390fd5b611177816119b7565b50565b6000611184611d2a565b600360ff16600a60149054906101000a900460ff1660ff16106111dc576040517f08c379a00000000000000000000000000000000000000000000000000000000081526004016111d3906141a9565b60405180910390fd5b6111e6600e611e7c565b6001600a60148282829054906101000a900460ff1661120591906141f8565b92506101000a81548160ff021916908360ff160217905550611227600e611e92565b90506112333382611ea0565b611297816154604233611246600f611e92565b60405160200161125893929190614296565b6040516020818303038152906040528051906020012060001c61127b9190614302565b426112869190614333565b6010611ebe9092919063ffffffff16565b506112a2600f611e7c565b60136000828152602001908152602001600020339080600181540180825580915050600190039060005260206000200160009091909190916101000a81548173ffffffffffffffffffffffffffffffffffffffff021916908373ffffffffffffffffffffffffffffffffffffffff1602179055507fa53b46789b95889c74674faf432800b478e84ec7049b629fc1c4be86c305ae0f3382600a60149054906101000a900460ff1660405161135893929190614367565b60405180910390a190565b60007f80ac58cd000000000000000000000000000000000000000000000000000000007bffffffffffffffffffffffffffffffffffffffffffffffffffffffff1916827bffffffffffffffffffffffffffffffffffffffffffffffffffffffff1916148061142e57507f5b5e139f000000000000000000000000000000000000000000000000000000007bffffffffffffffffffffffffffffffffffffffffffffffffffffffff1916827bffffffffffffffffffffffffffffffffffffffffffffffffffffffff1916145b8061143e575061143d82611edd565b5b9050919050565b61144d61152b565b73ffffffffffffffffffffffffffffffffffffffff1661146b610c5a565b73ffffffffffffffffffffffffffffffffffffffff16146114c1576040517f08c379a00000000000000000000000000000000000000000000000000000000081526004016114b8906143ea565b60405180910390fd5b565b60006114d5836000018360001b611f47565b60001c905092915050565b6114e981611fc3565b611528576040517f08c379a000000000000000000000000000000000000000000000000000000000815260040161151f90613d87565b60405180910390fd5b50565b600033905090565b816004600083815260200190815260200160002060006101000a81548173ffffffffffffffffffffffffffffffffffffffff021916908373ffffffffffffffffffffffffffffffffffffffff160217905550808273ffffffffffffffffffffffffffffffffffffffff166115a683610a4c565b73ffffffffffffffffffffffffffffffffffffffff167f8c5be1e5ebec7d5bd14f71427d1e84f3dd0314c0f7b2291e5b200ac8c7c3b92560405160405180910390a45050565b6000806115f883610a4c565b90508073ffffffffffffffffffffffffffffffffffffffff168473ffffffffffffffffffffffffffffffffffffffff16148061163a57506116398185610ed9565b5b8061167857508373ffffffffffffffffffffffffffffffffffffffff1661166084610733565b73ffffffffffffffffffffffffffffffffffffffff16145b91505092915050565b8273ffffffffffffffffffffffffffffffffffffffff166116a182610a4c565b73ffffffffffffffffffffffffffffffffffffffff16146116f7576040517f08c379a00000000000000000000000000000000000000000000000000000000081526004016116ee9061447c565b60405180910390fd5b600073ffffffffffffffffffffffffffffffffffffffff168273ffffffffffffffffffffffffffffffffffffffff1603611766576040517f08c379a000000000000000000000000000000000000000000000000000000000815260040161175d9061450e565b60405180910390fd5b6117738383836001612004565b8273ffffffffffffffffffffffffffffffffffffffff1661179382610a4c565b73ffffffffffffffffffffffffffffffffffffffff16146117e9576040517f08c379a00000000000000000000000000000000000000000000000000000000081526004016117e09061447c565b60405180910390fd5b6004600082815260200190815260200160002060006101000a81549073ffffffffffffffffffffffffffffffffffffffff02191690556001600360008573ffffffffffffffffffffffffffffffffffffffff1673ffffffffffffffffffffffffffffffffffffffff168152602001908152602001600020600082825403925050819055506001600360008473ffffffffffffffffffffffffffffffffffffffff1673ffffffffffffffffffffffffffffffffffffffff16815260200190815260200160002060008282540192505081905550816002600083815260200190815260200160002060006101000a81548173ffffffffffffffffffffffffffffffffffffffff021916908373ffffffffffffffffffffffffffffffffffffffff160217905550808273ffffffffffffffffffffffffffffffffffffffff168473ffffffffffffffffffffffffffffffffffffffff167fddf252ad1be2c89b69c2b068fc378daa952ba7f163c4a11628f55a4df523b3ef60405160405180910390a46119758383836001612302565b505050565b60006002600083815260200190815260200160002060009054906101000a900473ffffffffffffffffffffffffffffffffffffffff169050919050565b6000600a60009054906101000a900473ffffffffffffffffffffffffffffffffffffffff16905081600a60006101000a81548173ffffffffffffffffffffffffffffffffffffffff021916908373ffffffffffffffffffffffffffffffffffffffff1602179055508173ffffffffffffffffffffffffffffffffffffffff168173ffffffffffffffffffffffffffffffffffffffff167f8be0079c531659141344cd1fd0a4f28419497f9722a3daafe3b4186f6b6457e060405160405180910390a35050565b8173ffffffffffffffffffffffffffffffffffffffff168373ffffffffffffffffffffffffffffffffffffffff1603611aeb576040517f08c379a0000000000000000000000000000000000000000000000000000000008152600401611ae29061457a565b60405180910390fd5b80600560008573ffffffffffffffffffffffffffffffffffffffff1673ffffffffffffffffffffffffffffffffffffffff16815260200190815260200160002060008473ffffffffffffffffffffffffffffffffffffffff1673ffffffffffffffffffffffffffffffffffffffff16815260200190815260200160002060006101000a81548160ff0219169083151502179055508173ffffffffffffffffffffffffffffffffffffffff168373ffffffffffffffffffffffffffffffffffffffff167f17307eab39ab6107e8899845ad3d59bd9653f200f220920489ca2b5937696c3183604051611bdc91906133b5565b60405180910390a3505050565b611bf4848484611681565b611c0084848484612308565b611c3f576040517f08c379a0000000000000000000000000000000000000000000000000000000008152600401611c369061460c565b60405180910390fd5b50505050565b606060405180602001604052806000815250905090565b606060006001611c6b8461248f565b01905060008167ffffffffffffffff811115611c8a57611c896137e4565b5b6040519080825280601f01601f191660200182016040528015611cbc5781602001600182028036833780820191505090505b509050600082602001820190505b600115611d1f578080600190039150507f3031323334353637383961626364656600000000000000000000000000000000600a86061a8153600a8581611d1357611d126142d3565b5b04945060008503611cca575b819350505050919050565b6000611d3660106125e2565b905060005b818161ffff161015611e7857600080611d628361ffff1660106125f790919063ffffffff16565b9150915080421115611e63577f13bf8e4ed07afff1c6b7a6276bd7fb72ae1182e3b31cb9cbeb279e95939349f782604051611d9d9190613442565b60405180910390a16001600a60148282829054906101000a900460ff16611dc4919061462c565b92506101000a81548160ff021916908360ff160217905550611df082601061262390919063ffffffff16565b50601360008381526020019081526020016000206000611e1091906132c3565b611e626040518060400160405280601a81526020017f436c65616e696e672075702025642c20636f756e742069733a2000000000000081525083600a60149054906101000a900460ff1660ff1661263d565b5b50508080611e709061466f565b915050611d3b565b5050565b6001816000016000828254019250508190555050565b600081600001549050919050565b611eba8282604051806020016040528060008152506126dc565b5050565b6000611ed4846000018460001b8460001b612737565b90509392505050565b60007f01ffc9a7000000000000000000000000000000000000000000000000000000007bffffffffffffffffffffffffffffffffffffffffffffffffffffffff1916827bffffffffffffffffffffffffffffffffffffffffffffffffffffffff1916149050919050565b6000808360020160008481526020019081526020016000205490506000801b81141580611f7a5750611f798484612772565b5b611fb9576040517f08c379a0000000000000000000000000000000000000000000000000000000008152600401611fb0906146e5565b60405180910390fd5b8091505092915050565b60008073ffffffffffffffffffffffffffffffffffffffff16611fe58361197a565b73ffffffffffffffffffffffffffffffffffffffff1614159050919050565b600073ffffffffffffffffffffffffffffffffffffffff168473ffffffffffffffffffffffffffffffffffffffff16036120495761204484848484612792565b6122fc565b600360ff166013600084815260200190815260200160002080549050146120a5576040517f08c379a000000000000000000000000000000000000000000000000000000000815260040161209c90614751565b60405180910390fd5b6120af82846128f0565b6120ee576040517f08c379a00000000000000000000000000000000000000000000000000000000081526004016120e5906147bd565b60405180910390fd5b6121028260106114c390919063ffffffff16565b421161217a577f13bf8e4ed07afff1c6b7a6276bd7fb72ae1182e3b31cb9cbeb279e95939349f7826040516121379190613442565b60405180910390a16040517f08c379a000000000000000000000000000000000000000000000000000000000815260040161217190614829565b60405180910390fd5b6001600b60008673ffffffffffffffffffffffffffffffffffffffff1673ffffffffffffffffffffffffffffffffffffffff16815260200190815260200160002060008282546121ca9190614333565b92505081905550600d60009054906101000a900473ffffffffffffffffffffffffffffffffffffffff1673ffffffffffffffffffffffffffffffffffffffff1663a9059cbb8560016040518363ffffffff1660e01b815260040161222f92919061488e565b6020604051808303816000875af115801561224e573d6000803e3d6000fd5b505050506040513d601f19601f8201168201806040525081019061227291906148cc565b506122b46040518060400160405280601681526020017f5472616e73666572202573202d3e202573203a202564000000000000000000008152508585856129ca565b7f6a09a2fe6de54b57aed4bf9a18a9decd6f101392804ae0d135491e485c50f7a08484846040516122e7939291906148f9565b60405180910390a16122fb84848484612792565b5b50505050565b50505050565b60006123298473ffffffffffffffffffffffffffffffffffffffff16612a6c565b15612482578373ffffffffffffffffffffffffffffffffffffffff1663150b7a0261235261152b565b8786866040518563ffffffff1660e01b81526004016123749493929190614985565b6020604051808303816000875af19250505080156123b057506040513d601f19601f820116820180604052508101906123ad91906149e6565b60015b612432573d80600081146123e0576040519150601f19603f3d011682016040523d82523d6000602084013e6123e5565b606091505b50600081510361242a576040517f08c379a00000000000000000000000000000000000000000000000000000000081526004016124219061460c565b60405180910390fd5b805181602001fd5b63150b7a0260e01b7bffffffffffffffffffffffffffffffffffffffffffffffffffffffff1916817bffffffffffffffffffffffffffffffffffffffffffffffffffffffff191614915050612487565b600190505b949350505050565b600080600090507a184f03e93ff9f4daa797ed6e38ed64bf6a1f01000000000000000083106124ed577a184f03e93ff9f4daa797ed6e38ed64bf6a1f01000000000000000083816124e3576124e26142d3565b5b0492506040810190505b6d04ee2d6d415b85acef8100000000831061252a576d04ee2d6d415b85acef810000000083816125205761251f6142d3565b5b0492506020810190505b662386f26fc10000831061255957662386f26fc10000838161254f5761254e6142d3565b5b0492506010810190505b6305f5e1008310612582576305f5e1008381612578576125776142d3565b5b0492506008810190505b61271083106125a757612710838161259d5761259c6142d3565b5b0492506004810190505b606483106125ca57606483816125c0576125bf6142d3565b5b0492506002810190505b600a83106125d9576001810190505b80915050919050565b60006125f082600001612a8f565b9050919050565b60008060008061260a8660000186612aa4565b915091508160001c8160001c9350935050509250929050565b6000612635836000018360001b612ae4565b905092915050565b6126d783838360405160240161265593929190614a13565b6040516020818303038152906040527fca47c4eb000000000000000000000000000000000000000000000000000000007bffffffffffffffffffffffffffffffffffffffffffffffffffffffff19166020820180517bffffffffffffffffffffffffffffffffffffffffffffffffffffffff8381831617835250505050612b1d565b505050565b6126e68383612b46565b6126f36000848484612308565b612732576040517f08c379a00000000000000000000000000000000000000000000000000000000081526004016127299061460c565b60405180910390fd5b505050565b600081846002016000858152602001908152602001600020819055506127698385600001612d6390919063ffffffff16565b90509392505050565b600061278a8284600001612d7a90919063ffffffff16565b905092915050565b61279e84848484612d91565b60018111156127e2576040517f08c379a00000000000000000000000000000000000000000000000000000000081526004016127d990614ac3565b60405180910390fd5b6000829050600073ffffffffffffffffffffffffffffffffffffffff168573ffffffffffffffffffffffffffffffffffffffff16036128295761282481612d97565b612868565b8373ffffffffffffffffffffffffffffffffffffffff168573ffffffffffffffffffffffffffffffffffffffff1614612867576128668582612de0565b5b5b600073ffffffffffffffffffffffffffffffffffffffff168473ffffffffffffffffffffffffffffffffffffffff16036128aa576128a581612f4d565b6128e9565b8473ffffffffffffffffffffffffffffffffffffffff168473ffffffffffffffffffffffffffffffffffffffff16146128e8576128e7848261301e565b5b5b5050505050565b6000806013600085815260200190815260200160002080549050905060005b818160ff1610156129bd578373ffffffffffffffffffffffffffffffffffffffff16601360008781526020019081526020016000208260ff168154811061295957612958613d0c565b5b9060005260206000200160009054906101000a900473ffffffffffffffffffffffffffffffffffffffff1673ffffffffffffffffffffffffffffffffffffffff16036129aa576001925050506129c4565b80806129b590614ae3565b91505061290f565b5060009150505b92915050565b612a66848484846040516024016129e49493929190614b0c565b6040516020818303038152906040527f8ef3f399000000000000000000000000000000000000000000000000000000007bffffffffffffffffffffffffffffffffffffffffffffffffffffffff19166020820180517bffffffffffffffffffffffffffffffffffffffffffffffffffffffff8381831617835250505050612b1d565b50505050565b6000808273ffffffffffffffffffffffffffffffffffffffff163b119050919050565b6000612a9d8260000161309d565b9050919050565b6000806000612abf84866000016130b290919063ffffffff16565b9050808560020160008381526020019081526020016000205492509250509250929050565b600082600201600083815260200190815260200160002060009055612b1582846000016130c990919063ffffffff16565b905092915050565b60008151905060006a636f6e736f6c652e6c6f679050602083016000808483855afa5050505050565b600073ffffffffffffffffffffffffffffffffffffffff168273ffffffffffffffffffffffffffffffffffffffff1603612bb5576040517f08c379a0000000000000000000000000000000000000000000000000000000008152600401612bac90614ba4565b60405180910390fd5b612bbe81611fc3565b15612bfe576040517f08c379a0000000000000000000000000000000000000000000000000000000008152600401612bf590614c10565b60405180910390fd5b612c0c600083836001612004565b612c1581611fc3565b15612c55576040517f08c379a0000000000000000000000000000000000000000000000000000000008152600401612c4c90614c10565b60405180910390fd5b6001600360008473ffffffffffffffffffffffffffffffffffffffff1673ffffffffffffffffffffffffffffffffffffffff16815260200190815260200160002060008282540192505081905550816002600083815260200190815260200160002060006101000a81548173ffffffffffffffffffffffffffffffffffffffff021916908373ffffffffffffffffffffffffffffffffffffffff160217905550808273ffffffffffffffffffffffffffffffffffffffff16600073ffffffffffffffffffffffffffffffffffffffff167fddf252ad1be2c89b69c2b068fc378daa952ba7f163c4a11628f55a4df523b3ef60405160405180910390a4612d5f600083836001612302565b5050565b6000612d7283600001836130e0565b905092915050565b6000612d898360000183613150565b905092915050565b50505050565b6008805490506009600083815260200190815260200160002081905550600881908060018154018082558091505060019003906000526020600020016000909190919091505550565b60006001612ded84610b77565b612df79190614c30565b9050600060076000848152602001908152602001600020549050818114612edc576000600660008673ffffffffffffffffffffffffffffffffffffffff1673ffffffffffffffffffffffffffffffffffffffff168152602001908152602001600020600084815260200190815260200160002054905080600660008773ffffffffffffffffffffffffffffffffffffffff1673ffffffffffffffffffffffffffffffffffffffff168152602001908152602001600020600084815260200190815260200160002081905550816007600083815260200190815260200160002081905550505b6007600084815260200190815260200160002060009055600660008573ffffffffffffffffffffffffffffffffffffffff1673ffffffffffffffffffffffffffffffffffffffff16815260200190815260200160002060008381526020019081526020016000206000905550505050565b60006001600880549050612f619190614c30565b9050600060096000848152602001908152602001600020549050600060088381548110612f9157612f90613d0c565b5b906000526020600020015490508060088381548110612fb357612fb2613d0c565b5b90600052602060002001819055508160096000838152602001908152602001600020819055506009600085815260200190815260200160002060009055600880548061300257613001614c64565b5b6001900381819060005260206000200160009055905550505050565b600061302983610b77565b905081600660008573ffffffffffffffffffffffffffffffffffffffff1673ffffffffffffffffffffffffffffffffffffffff168152602001908152602001600020600083815260200190815260200160002081905550806007600084815260200190815260200160002081905550505050565b60006130ab82600001613173565b9050919050565b60006130c18360000183613184565b905092915050565b60006130d883600001836131af565b905092915050565b60006130ec8383613150565b61314557826000018290806001815401808255809150506001900390600052602060002001600090919091909150558260000180549050836001016000848152602001908152602001600020819055506001905061314a565b600090505b92915050565b600080836001016000848152602001908152602001600020541415905092915050565b600081600001805490509050919050565b600082600001828154811061319c5761319b613d0c565b5b9060005260206000200154905092915050565b600080836001016000848152602001908152602001600020549050600081146132b75760006001826131e19190614c30565b90506000600186600001805490506131f99190614c30565b905081811461326857600086600001828154811061321a57613219613d0c565b5b906000526020600020015490508087600001848154811061323e5761323d613d0c565b5b90600052602060002001819055508387600101600083815260200190815260200160002081905550505b8560000180548061327c5761327b614c64565b5b6001900381819060005260206000200160009055905585600101600086815260200190815260200160002060009055600193505050506132bd565b60009150505b92915050565b50805460008255906000526020600020908101906132e191906132e4565b50565b5b808211156132fd5760008160009055506001016132e5565b5090565b6000604051905090565b600080fd5b600080fd5b60007fffffffff0000000000000000000000000000000000000000000000000000000082169050919050565b61334a81613315565b811461335557600080fd5b50565b60008135905061336781613341565b92915050565b6000602082840312156133835761338261330b565b5b600061339184828501613358565b91505092915050565b60008115159050919050565b6133af8161339a565b82525050565b60006020820190506133ca60008301846133a6565b92915050565b6000819050919050565b6133e3816133d0565b81146133ee57600080fd5b50565b600081359050613400816133da565b92915050565b60006020828403121561341c5761341b61330b565b5b600061342a848285016133f1565b91505092915050565b61343c816133d0565b82525050565b60006020820190506134576000830184613433565b92915050565b600081519050919050565b600082825260208201905092915050565b60005b8381101561349757808201518184015260208101905061347c565b60008484015250505050565b6000601f19601f8301169050919050565b60006134bf8261345d565b6134c98185613468565b93506134d9818560208601613479565b6134e2816134a3565b840191505092915050565b6000602082019050818103600083015261350781846134b4565b905092915050565b600073ffffffffffffffffffffffffffffffffffffffff82169050919050565b600061353a8261350f565b9050919050565b61354a8161352f565b82525050565b60006020820190506135656000830184613541565b92915050565b6135748161352f565b811461357f57600080fd5b50565b6000813590506135918161356b565b92915050565b600080604083850312156135ae576135ad61330b565b5b60006135bc85828601613582565b92505060206135cd858286016133f1565b9150509250929050565b6000806000606084860312156135f0576135ef61330b565b5b60006135fe86828701613582565b935050602061360f86828701613582565b9250506040613620868287016133f1565b9150509250925092565b600060ff82169050919050565b6136408161362a565b82525050565b600060208201905061365b6000830184613637565b92915050565b6000602082840312156136775761367661330b565b5b600061368584828501613582565b91505092915050565b600081519050919050565b600082825260208201905092915050565b6000819050602082019050919050565b6136c38161352f565b82525050565b60006136d583836136ba565b60208301905092915050565b6000602082019050919050565b60006136f98261368e565b6137038185613699565b935061370e836136aa565b8060005b8381101561373f57815161372688826136c9565b9750613731836136e1565b925050600181019050613712565b5085935050505092915050565b6000602082019050818103600083015261376681846136ee565b905092915050565b6137778161339a565b811461378257600080fd5b50565b6000813590506137948161376e565b92915050565b600080604083850312156137b1576137b061330b565b5b60006137bf85828601613582565b92505060206137d085828601613785565b9150509250929050565b600080fd5b600080fd5b7f4e487b7100000000000000000000000000000000000000000000000000000000600052604160045260246000fd5b61381c826134a3565b810181811067ffffffffffffffff8211171561383b5761383a6137e4565b5b80604052505050565b600061384e613301565b905061385a8282613813565b919050565b600067ffffffffffffffff82111561387a576138796137e4565b5b613883826134a3565b9050602081019050919050565b82818337600083830152505050565b60006138b26138ad8461385f565b613844565b9050828152602081018484840111156138ce576138cd6137df565b5b6138d9848285613890565b509392505050565b600082601f8301126138f6576138f56137da565b5b813561390684826020860161389f565b91505092915050565b600080600080608085870312156139295761392861330b565b5b600061393787828801613582565b945050602061394887828801613582565b9350506040613959878288016133f1565b925050606085013567ffffffffffffffff81111561397a57613979613310565b5b613986878288016138e1565b91505092959194509250565b600080604083850312156139a9576139a861330b565b5b60006139b785828601613582565b92505060206139c885828601613582565b9150509250929050565b7f4e487b7100000000000000000000000000000000000000000000000000000000600052602260045260246000fd5b60006002820490506001821680613a1957607f821691505b602082108103613a2c57613a2b6139d2565b5b50919050565b7f4552433732313a20617070726f76616c20746f2063757272656e74206f776e6560008201527f7200000000000000000000000000000000000000000000000000000000000000602082015250565b6000613a8e602183613468565b9150613a9982613a32565b604082019050919050565b60006020820190508181036000830152613abd81613a81565b9050919050565b7f4552433732313a20617070726f76652063616c6c6572206973206e6f7420746f60008201527f6b656e206f776e6572206f7220617070726f76656420666f7220616c6c000000602082015250565b6000613b20603d83613468565b9150613b2b82613ac4565b604082019050919050565b60006020820190508181036000830152613b4f81613b13565b9050919050565b7f4552433732313a2063616c6c6572206973206e6f7420746f6b656e206f776e6560008201527f72206f7220617070726f76656400000000000000000000000000000000000000602082015250565b6000613bb2602d83613468565b9150613bbd82613b56565b604082019050919050565b60006020820190508181036000830152613be181613ba5565b9050919050565b7f455243373231456e756d657261626c653a206f776e657220696e646578206f7560008201527f74206f6620626f756e6473000000000000000000000000000000000000000000602082015250565b6000613c44602b83613468565b9150613c4f82613be8565b604082019050919050565b60006020820190508181036000830152613c7381613c37565b9050919050565b7f455243373231456e756d657261626c653a20676c6f62616c20696e646578206f60008201527f7574206f6620626f756e64730000000000000000000000000000000000000000602082015250565b6000613cd6602c83613468565b9150613ce182613c7a565b604082019050919050565b60006020820190508181036000830152613d0581613cc9565b9050919050565b7f4e487b7100000000000000000000000000000000000000000000000000000000600052603260045260246000fd5b7f4552433732313a20696e76616c696420746f6b656e2049440000000000000000600082015250565b6000613d71601883613468565b9150613d7c82613d3b565b602082019050919050565b60006020820190508181036000830152613da081613d64565b9050919050565b600081519050613db6816133da565b92915050565b600060208284031215613dd257613dd161330b565b5b6000613de084828501613da7565b91505092915050565b7f4552433732313a2061646472657373207a65726f206973206e6f74206120766160008201527f6c6964206f776e65720000000000000000000000000000000000000000000000602082015250565b6000613e45602983613468565b9150613e5082613de9565b604082019050919050565b60006020820190508181036000830152613e7481613e38565b9050919050565b600081905092915050565b6000613e918261345d565b613e9b8185613e7b565b9350613eab818560208601613479565b80840191505092915050565b6000613ec38285613e86565b9150613ecf8284613e86565b91508190509392505050565b7f54686572652061726520746f6f206d616e7920706c617965727320686572652e60008201527f2e2e000000000000000000000000000000000000000000000000000000000000602082015250565b6000613f37602283613468565b9150613f4282613edb565b604082019050919050565b60006020820190508181036000830152613f6681613f2a565b9050919050565b600081549050919050565b60008190508160005260206000209050919050565b60008160001c9050919050565b600073ffffffffffffffffffffffffffffffffffffffff82169050919050565b6000613fcd613fc883613f8d565b613f9a565b9050919050565b6000613fe08254613fba565b9050919050565b6000600182019050919050565b6000613fff82613f6d565b6140098185613699565b935061401483613f78565b8060005b8381101561404c5761402982613fd4565b61403388826136c9565b975061403e83613fe7565b925050600181019050614018565b5085935050505092915050565b600060808201905061406e6000830187613541565b61407b6020830186613433565b6140886040830185613637565b818103606083015261409a8184613ff4565b905095945050505050565b7f4f776e61626c653a206e6577206f776e657220697320746865207a65726f206160008201527f6464726573730000000000000000000000000000000000000000000000000000602082015250565b6000614101602683613468565b915061410c826140a5565b604082019050919050565b60006020820190508181036000830152614130816140f4565b9050919050565b7f54686572652061726520616c7265616479206d6178696d756d206e756d62657260008201527f206f6620706f7461746f65732e2e2e0000000000000000000000000000000000602082015250565b6000614193602f83613468565b915061419e82614137565b604082019050919050565b600060208201905081810360008301526141c281614186565b9050919050565b7f4e487b7100000000000000000000000000000000000000000000000000000000600052601160045260246000fd5b60006142038261362a565b915061420e8361362a565b9250828201905060ff811115614227576142266141c9565b5b92915050565b6000819050919050565b614248614243826133d0565b61422d565b82525050565b60008160601b9050919050565b60006142668261424e565b9050919050565b60006142788261425b565b9050919050565b61429061428b8261352f565b61426d565b82525050565b60006142a28286614237565b6020820191506142b2828561427f565b6014820191506142c28284614237565b602082019150819050949350505050565b7f4e487b7100000000000000000000000000000000000000000000000000000000600052601260045260246000fd5b600061430d826133d0565b9150614318836133d0565b925082614328576143276142d3565b5b828206905092915050565b600061433e826133d0565b9150614349836133d0565b9250828201905080821115614361576143606141c9565b5b92915050565b600060608201905061437c6000830186613541565b6143896020830185613433565b6143966040830184613637565b949350505050565b7f4f776e61626c653a2063616c6c6572206973206e6f7420746865206f776e6572600082015250565b60006143d4602083613468565b91506143df8261439e565b602082019050919050565b60006020820190508181036000830152614403816143c7565b9050919050565b7f4552433732313a207472616e736665722066726f6d20696e636f72726563742060008201527f6f776e6572000000000000000000000000000000000000000000000000000000602082015250565b6000614466602583613468565b91506144718261440a565b604082019050919050565b6000602082019050818103600083015261449581614459565b9050919050565b7f4552433732313a207472616e7366657220746f20746865207a65726f2061646460008201527f7265737300000000000000000000000000000000000000000000000000000000602082015250565b60006144f8602483613468565b91506145038261449c565b604082019050919050565b60006020820190508181036000830152614527816144eb565b9050919050565b7f4552433732313a20617070726f766520746f2063616c6c657200000000000000600082015250565b6000614564601983613468565b915061456f8261452e565b602082019050919050565b6000602082019050818103600083015261459381614557565b9050919050565b7f4552433732313a207472616e7366657220746f206e6f6e20455243373231526560008201527f63656976657220696d706c656d656e7465720000000000000000000000000000602082015250565b60006145f6603283613468565b91506146018261459a565b604082019050919050565b60006020820190508181036000830152614625816145e9565b9050919050565b60006146378261362a565b91506146428361362a565b9250828203905060ff81111561465b5761465a6141c9565b5b92915050565b600061ffff82169050919050565b600061467a82614661565b915061ffff820361468e5761468d6141c9565b5b600182019050919050565b7f456e756d657261626c654d61703a206e6f6e6578697374656e74206b65790000600082015250565b60006146cf601e83613468565b91506146da82614699565b602082019050919050565b600060208201905081810360008301526146fe816146c2565b9050919050565b7f4e6f742072656164792100000000000000000000000000000000000000000000600082015250565b600061473b600a83613468565b915061474682614705565b602082019050919050565b6000602082019050818103600083015261476a8161472e565b9050919050565b7f496e76616c69642064657374696e6174696f6e21000000000000000000000000600082015250565b60006147a7601483613468565b91506147b282614771565b602082019050919050565b600060208201905081810360008301526147d68161479a565b9050919050565b7f54686520746f6b656e2068617320616c7265616479206578706c6f6465642100600082015250565b6000614813601f83613468565b915061481e826147dd565b602082019050919050565b6000602082019050818103600083015261484281614806565b9050919050565b6000819050919050565b6000819050919050565b600061487861487361486e84614849565b614853565b6133d0565b9050919050565b6148888161485d565b82525050565b60006040820190506148a36000830185613541565b6148b0602083018461487f565b9392505050565b6000815190506148c68161376e565b92915050565b6000602082840312156148e2576148e161330b565b5b60006148f0848285016148b7565b91505092915050565b600060608201905061490e6000830186613541565b61491b6020830185613541565b6149286040830184613433565b949350505050565b600081519050919050565b600082825260208201905092915050565b600061495782614930565b614961818561493b565b9350614971818560208601613479565b61497a816134a3565b840191505092915050565b600060808201905061499a6000830187613541565b6149a76020830186613541565b6149b46040830185613433565b81810360608301526149c6818461494c565b905095945050505050565b6000815190506149e081613341565b92915050565b6000602082840312156149fc576149fb61330b565b5b6000614a0a848285016149d1565b91505092915050565b60006060820190508181036000830152614a2d81866134b4565b9050614a3c6020830185613433565b614a496040830184613433565b949350505050565b7f455243373231456e756d657261626c653a20636f6e736563757469766520747260008201527f616e7366657273206e6f7420737570706f727465640000000000000000000000602082015250565b6000614aad603583613468565b9150614ab882614a51565b604082019050919050565b60006020820190508181036000830152614adc81614aa0565b9050919050565b6000614aee8261362a565b915060ff8203614b0157614b006141c9565b5b600182019050919050565b60006080820190508181036000830152614b2681876134b4565b9050614b356020830186613541565b614b426040830185613541565b614b4f6060830184613433565b95945050505050565b7f4552433732313a206d696e7420746f20746865207a65726f2061646472657373600082015250565b6000614b8e602083613468565b9150614b9982614b58565b602082019050919050565b60006020820190508181036000830152614bbd81614b81565b9050919050565b7f4552433732313a20746f6b656e20616c7265616479206d696e74656400000000600082015250565b6000614bfa601c83613468565b9150614c0582614bc4565b602082019050919050565b60006020820190508181036000830152614c2981614bed565b9050919050565b6000614c3b826133d0565b9150614c46836133d0565b9250828203905081811115614c5e57614c5d6141c9565b5b92915050565b7f4e487b7100000000000000000000000000000000000000000000000000000000600052603160045260246000fdfea264697066735822122084e30e7269e0f0cbca081b548bb3a04362b14ca9415225db8bd99af31b3dc76064736f6c6343000812003360806040523480156200001157600080fd5b50604051620019df380380620019df8339818101604052810190620000379190620002fc565b6040518060400160405280600681526020017f546f64616d6500000000000000000000000000000000000000000000000000008152506040518060400160405280600381526020017f54444d00000000000000000000000000000000000000000000000000000000008152508160039081620000b491906200059e565b508060049081620000c691906200059e565b50505033600560006101000a81548173ffffffffffffffffffffffffffffffffffffffff021916908373ffffffffffffffffffffffffffffffffffffffff1602179055506200013e600560009054906101000a900473ffffffffffffffffffffffffffffffffffffffff16826200014560201b60201c565b50620007a0565b600073ffffffffffffffffffffffffffffffffffffffff168273ffffffffffffffffffffffffffffffffffffffff1603620001b7576040517f08c379a0000000000000000000000000000000000000000000000000000000008152600401620001ae90620006e6565b60405180910390fd5b620001cb60008383620002b260201b60201c565b8060026000828254620001df919062000737565b92505081905550806000808473ffffffffffffffffffffffffffffffffffffffff1673ffffffffffffffffffffffffffffffffffffffff168152602001908152602001600020600082825401925050819055508173ffffffffffffffffffffffffffffffffffffffff16600073ffffffffffffffffffffffffffffffffffffffff167fddf252ad1be2c89b69c2b068fc378daa952ba7f163c4a11628f55a4df523b3ef8360405162000292919062000783565b60405180910390a3620002ae60008383620002b760201b60201c565b5050565b505050565b505050565b600080fd5b6000819050919050565b620002d681620002c1565b8114620002e257600080fd5b50565b600081519050620002f681620002cb565b92915050565b600060208284031215620003155762000314620002bc565b5b60006200032584828501620002e5565b91505092915050565b600081519050919050565b7f4e487b7100000000000000000000000000000000000000000000000000000000600052604160045260246000fd5b7f4e487b7100000000000000000000000000000000000000000000000000000000600052602260045260246000fd5b60006002820490506001821680620003b057607f821691505b602082108103620003c657620003c562000368565b5b50919050565b60008190508160005260206000209050919050565b60006020601f8301049050919050565b600082821b905092915050565b600060088302620004307fffffffffffffffffffffffffffffffffffffffffffffffffffffffffffffffff82620003f1565b6200043c8683620003f1565b95508019841693508086168417925050509392505050565b6000819050919050565b60006200047f620004796200047384620002c1565b62000454565b620002c1565b9050919050565b6000819050919050565b6200049b836200045e565b620004b3620004aa8262000486565b848454620003fe565b825550505050565b600090565b620004ca620004bb565b620004d781848462000490565b505050565b5b81811015620004ff57620004f3600082620004c0565b600181019050620004dd565b5050565b601f8211156200054e576200051881620003cc565b6200052384620003e1565b8101602085101562000533578190505b6200054b6200054285620003e1565b830182620004dc565b50505b505050565b600082821c905092915050565b6000620005736000198460080262000553565b1980831691505092915050565b60006200058e838362000560565b9150826002028217905092915050565b620005a9826200032e565b67ffffffffffffffff811115620005c557620005c462000339565b5b620005d1825462000397565b620005de82828562000503565b600060209050601f83116001811462000616576000841562000601578287015190505b6200060d858262000580565b8655506200067d565b601f1984166200062686620003cc565b60005b82811015620006505784890151825560018201915060208501945060208101905062000629565b868310156200067057848901516200066c601f89168262000560565b8355505b6001600288020188555050505b505050505050565b600082825260208201905092915050565b7f45524332303a206d696e7420746f20746865207a65726f206164647265737300600082015250565b6000620006ce601f8362000685565b9150620006db8262000696565b602082019050919050565b600060208201905081810360008301526200070181620006bf565b9050919050565b7f4e487b7100000000000000000000000000000000000000000000000000000000600052601160045260246000fd5b60006200074482620002c1565b91506200075183620002c1565b92508282019050808211156200076c576200076b62000708565b5b92915050565b6200077d81620002c1565b82525050565b60006020820190506200079a600083018462000772565b92915050565b61122f80620007b06000396000f3fe608060405234801561001057600080fd5b50600436106100a95760003560e01c80633950935111610071578063395093511461016857806370a082311461019857806395d89b41146101c8578063a457c2d7146101e6578063a9059cbb14610216578063dd62ed3e14610246576100a9565b806306fdde03146100ae578063095ea7b3146100cc57806318160ddd146100fc57806323b872dd1461011a578063313ce5671461014a575b600080fd5b6100b6610276565b6040516100c39190610b0c565b60405180910390f35b6100e660048036038101906100e19190610bc7565b610308565b6040516100f39190610c22565b60405180910390f35b61010461032b565b6040516101119190610c4c565b60405180910390f35b610134600480360381019061012f9190610c67565b610335565b6040516101419190610c22565b60405180910390f35b610152610364565b60405161015f9190610cd6565b60405180910390f35b610182600480360381019061017d9190610bc7565b61036d565b60405161018f9190610c22565b60405180910390f35b6101b260048036038101906101ad9190610cf1565b6103a4565b6040516101bf9190610c4c565b60405180910390f35b6101d06103ec565b6040516101dd9190610b0c565b60405180910390f35b61020060048036038101906101fb9190610bc7565b61047e565b60405161020d9190610c22565b60405180910390f35b610230600480360381019061022b9190610bc7565b6104f5565b60405161023d9190610c22565b60405180910390f35b610260600480360381019061025b9190610d1e565b610518565b60405161026d9190610c4c565b60405180910390f35b60606003805461028590610d8d565b80601f01602080910402602001604051908101604052809291908181526020018280546102b190610d8d565b80156102fe5780601f106102d3576101008083540402835291602001916102fe565b820191906000526020600020905b8154815290600101906020018083116102e157829003601f168201915b5050505050905090565b60008061031361059f565b90506103208185856105a7565b600191505092915050565b6000600254905090565b60008061034061059f565b905061034d858285610770565b6103588585856107fc565b60019150509392505050565b60006012905090565b60008061037861059f565b905061039981858561038a8589610518565b6103949190610ded565b6105a7565b600191505092915050565b60008060008373ffffffffffffffffffffffffffffffffffffffff1673ffffffffffffffffffffffffffffffffffffffff168152602001908152602001600020549050919050565b6060600480546103fb90610d8d565b80601f016020809104026020016040519081016040528092919081815260200182805461042790610d8d565b80156104745780601f1061044957610100808354040283529160200191610474565b820191906000526020600020905b81548152906001019060200180831161045757829003601f168201915b5050505050905090565b60008061048961059f565b905060006104978286610518565b9050838110156104dc576040517f08c379a00000000000000000000000000000000000000000000000000000000081526004016104d390610e93565b60405180910390fd5b6104e982868684036105a7565b60019250505092915050565b60008061050061059f565b905061050d8185856107fc565b600191505092915050565b6000600160008473ffffffffffffffffffffffffffffffffffffffff1673ffffffffffffffffffffffffffffffffffffffff16815260200190815260200160002060008373ffffffffffffffffffffffffffffffffffffffff1673ffffffffffffffffffffffffffffffffffffffff16815260200190815260200160002054905092915050565b600033905090565b600073ffffffffffffffffffffffffffffffffffffffff168373ffffffffffffffffffffffffffffffffffffffff1603610616576040517f08c379a000000000000000000000000000000000000000000000000000000000815260040161060d90610f25565b60405180910390fd5b600073ffffffffffffffffffffffffffffffffffffffff168273ffffffffffffffffffffffffffffffffffffffff1603610685576040517f08c379a000000000000000000000000000000000000000000000000000000000815260040161067c90610fb7565b60405180910390fd5b80600160008573ffffffffffffffffffffffffffffffffffffffff1673ffffffffffffffffffffffffffffffffffffffff16815260200190815260200160002060008473ffffffffffffffffffffffffffffffffffffffff1673ffffffffffffffffffffffffffffffffffffffff168152602001908152602001600020819055508173ffffffffffffffffffffffffffffffffffffffff168373ffffffffffffffffffffffffffffffffffffffff167f8c5be1e5ebec7d5bd14f71427d1e84f3dd0314c0f7b2291e5b200ac8c7c3b925836040516107639190610c4c565b60405180910390a3505050565b600061077c8484610518565b90507fffffffffffffffffffffffffffffffffffffffffffffffffffffffffffffffff81146107f657818110156107e8576040517f08c379a00000000000000000000000000000000000000000000000000000000081526004016107df90611023565b60405180910390fd5b6107f584848484036105a7565b5b50505050565b600073ffffffffffffffffffffffffffffffffffffffff168373ffffffffffffffffffffffffffffffffffffffff160361086b576040517f08c379a0000000000000000000000000000000000000000000000000000000008152600401610862906110b5565b60405180910390fd5b600073ffffffffffffffffffffffffffffffffffffffff168273ffffffffffffffffffffffffffffffffffffffff16036108da576040517f08c379a00000000000000000000000000000000000000000000000000000000081526004016108d190611147565b60405180910390fd5b6108e5838383610a72565b60008060008573ffffffffffffffffffffffffffffffffffffffff1673ffffffffffffffffffffffffffffffffffffffff1681526020019081526020016000205490508181101561096b576040517f08c379a0000000000000000000000000000000000000000000000000000000008152600401610962906111d9565b60405180910390fd5b8181036000808673ffffffffffffffffffffffffffffffffffffffff1673ffffffffffffffffffffffffffffffffffffffff16815260200190815260200160002081905550816000808573ffffffffffffffffffffffffffffffffffffffff1673ffffffffffffffffffffffffffffffffffffffff168152602001908152602001600020600082825401925050819055508273ffffffffffffffffffffffffffffffffffffffff168473ffffffffffffffffffffffffffffffffffffffff167fddf252ad1be2c89b69c2b068fc378daa952ba7f163c4a11628f55a4df523b3ef84604051610a599190610c4c565b60405180910390a3610a6c848484610a77565b50505050565b505050565b505050565b600081519050919050565b600082825260208201905092915050565b60005b83811015610ab6578082015181840152602081019050610a9b565b60008484015250505050565b6000601f19601f8301169050919050565b6000610ade82610a7c565b610ae88185610a87565b9350610af8818560208601610a98565b610b0181610ac2565b840191505092915050565b60006020820190508181036000830152610b268184610ad3565b905092915050565b600080fd5b600073ffffffffffffffffffffffffffffffffffffffff82169050919050565b6000610b5e82610b33565b9050919050565b610b6e81610b53565b8114610b7957600080fd5b50565b600081359050610b8b81610b65565b92915050565b6000819050919050565b610ba481610b91565b8114610baf57600080fd5b50565b600081359050610bc181610b9b565b92915050565b60008060408385031215610bde57610bdd610b2e565b5b6000610bec85828601610b7c565b9250506020610bfd85828601610bb2565b9150509250929050565b60008115159050919050565b610c1c81610c07565b82525050565b6000602082019050610c376000830184610c13565b92915050565b610c4681610b91565b82525050565b6000602082019050610c616000830184610c3d565b92915050565b600080600060608486031215610c8057610c7f610b2e565b5b6000610c8e86828701610b7c565b9350506020610c9f86828701610b7c565b9250506040610cb086828701610bb2565b9150509250925092565b600060ff82169050919050565b610cd081610cba565b82525050565b6000602082019050610ceb6000830184610cc7565b92915050565b600060208284031215610d0757610d06610b2e565b5b6000610d1584828501610b7c565b91505092915050565b60008060408385031215610d3557610d34610b2e565b5b6000610d4385828601610b7c565b9250506020610d5485828601610b7c565b9150509250929050565b7f4e487b7100000000000000000000000000000000000000000000000000000000600052602260045260246000fd5b60006002820490506001821680610da557607f821691505b602082108103610db857610db7610d5e565b5b50919050565b7f4e487b7100000000000000000000000000000000000000000000000000000000600052601160045260246000fd5b6000610df882610b91565b9150610e0383610b91565b9250828201905080821115610e1b57610e1a610dbe565b5b92915050565b7f45524332303a2064656372656173656420616c6c6f77616e63652062656c6f7760008201527f207a65726f000000000000000000000000000000000000000000000000000000602082015250565b6000610e7d602583610a87565b9150610e8882610e21565b604082019050919050565b60006020820190508181036000830152610eac81610e70565b9050919050565b7f45524332303a20617070726f76652066726f6d20746865207a65726f2061646460008201527f7265737300000000000000000000000000000000000000000000000000000000602082015250565b6000610f0f602483610a87565b9150610f1a82610eb3565b604082019050919050565b60006020820190508181036000830152610f3e81610f02565b9050919050565b7f45524332303a20617070726f766520746f20746865207a65726f20616464726560008201527f7373000000000000000000000000000000000000000000000000000000000000602082015250565b6000610fa1602283610a87565b9150610fac82610f45565b604082019050919050565b60006020820190508181036000830152610fd081610f94565b9050919050565b7f45524332303a20696e73756666696369656e7420616c6c6f77616e6365000000600082015250565b600061100d601d83610a87565b915061101882610fd7565b602082019050919050565b6000602082019050818103600083015261103c81611000565b9050919050565b7f45524332303a207472616e736665722066726f6d20746865207a65726f20616460008201527f6472657373000000000000000000000000000000000000000000000000000000602082015250565b600061109f602583610a87565b91506110aa82611043565b604082019050919050565b600060208201905081810360008301526110ce81611092565b9050919050565b7f45524332303a207472616e7366657220746f20746865207a65726f206164647260008201527f6573730000000000000000000000000000000000000000000000000000000000602082015250565b6000611131602383610a87565b915061113c826110d5565b604082019050919050565b6000602082019050818103600083015261116081611124565b9050919050565b7f45524332303a207472616e7366657220616d6f756e742065786365656473206260008201527f616c616e63650000000000000000000000000000000000000000000000000000602082015250565b60006111c3602683610a87565b91506111ce82611167565b604082019050919050565b600060208201905081810360008301526111f2816111b6565b905091905056fea26469706673582212203eed8b5e94fde81250e3987c4d1f181b45cbbf7d4074bc7ff26098d578add71664736f6c63430008120033",
  "linkReferences": {},
  "deployedLinkReferences": {}
}